:0600000002001902013BA1
:01000B0032C2
:0300130002015097
:08007200E4F508F5090200168F
:030016000201667E
:20007A00AE82AF837C007D007A007B00C3EA9EEB64808FF063F08095F050070ABA00ED0B12
:20009A0080EA0CBC00010DC3EC943CED6480948040D622D2B0D2A8D288D2B3D2AAD28AD2E5
:2000BA00AF2275800022AF82BF0A005007EF90025993F58022AF827E008F047D00750A0AA1
:2000DA008D0B8C828D83C006C005C0041201E7AA82D004D005750A0A750B008C828D83C04B
:2000FA000212021DAC82D002D0068C07EE540124FF92A2EE03540124FF92A3EE03035401C9
:20011A0024FF92A48A82C007C0061200C090000112007A1200BCD006D0070EBE03004099C1
:20013A0022C0E0C0D0C2AF0508E4B508020509D2AFD0D0D0E032C0E0C0D0C2AF150874FFF0
:17015A00B508021509D2AFD0D0D0E0321200AD8508821200CF80F887
:0A0259003F065B4F666D7D077F6F67
:06004800E478FFF6D8FD8C
:200026007900E94400601B7A00900263780175A000E493F2A308B8000205A0D9F4DAF2751B
:02004600A0FF19
:20017100E50A450B60467A01E50A25E0F50AE50B334012F50BE582950AE583950B40030A4B
:2001910080E6C3E50B13F50BE50A13F50AC3E582950AF5F0E583950B4005F58385F082C3F4
:0D01B100E50B13F50BE50A13F50ADAE12260
:20004E007800E84400600A790175A000E4F309D8FC7800E84400600C7900900001E4F0A3B0
:04006E00D8FCD9FAE7
:2001BE007A10E4FBFCE58225E0F582E58333F583EB33FBEC33FCEB950AF5F0EC950B400651
:0901DE00FCABF0438201DADD22E2
:0D00190075810B120255E58260030200168E
:2001E700C2D5E58330E70DD2D5E4C39582F582E49583F583E50B30E70BE4C3950AF50AE44A
:16020700950BF50B12017130D50BE4C39582F582E49583F58322E2
:20021D00C2D5E58330E70DD2D5E4C39582F582E49583F583E50B30E70DB2D5E4C3950AF578
:18023D000AE4950BF50B1201BE30D50BE4C39582F582E49583F583226F
:04025500758200228C
:00000001FF
